{
  "_format": "hh-sol-artifact-1",
  "contractName": "Transactions",
  "sourceName": "contracts/Transactions.sol",
  "abi": [
    {
      "anonymous": false,
      "inputs": [
        {
          "indexed": false,
          "internalType": "address",
          "name": "from",
          "type": "address"
        },
        {
          "indexed": false,
          "internalType": "address",
          "name": "receiver",
          "type": "address"
        },
        {
          "indexed": false,
          "internalType": "uint256",
          "name": "amount",
          "type": "uint256"
        },
        {
          "indexed": false,
          "internalType": "string",
          "name": "message",
          "type": "string"
        },
        {
          "indexed": false,
          "internalType": "uint256",
          "name": "timestamp",
          "type": "uint256"
        }
      ],
      "name": "Transfer",
      "type": "event"
    },
    {
      "inputs": [
        {
          "internalType": "address payable",
          "name": "receiver",
          "type": "address"
        },
        {
          "internalType": "uint256",
          "name": "amount",
          "type": "uint256"
        },
        {
          "internalType": "string",
          "name": "message",
          "type": "string"
        }
      ],
      "name": "addToBlockchain",
      "outputs": [],
      "stateMutability": "nonpayable",
      "type": "function"
    },
    {
      "inputs": [],
      "name": "getAllTransactions",
      "outputs": [
        {
          "components": [
            {
              "internalType": "address",
              "name": "sender",
              "type": "address"
            },
            {
              "internalType": "address",
              "name": "receiver",
              "type": "address"
            },
            {
              "internalType": "uint256",
              "name": "amount",
              "type": "uint256"
            },
            {
              "internalType": "string",
              "name": "message",
              "type": "string"
            },
            {
              "internalType": "uint256",
              "name": "timestamp",
              "type": "uint256"
            }
          ],
          "internalType": "struct Transactions.TransferStruct[]",
          "name": "",
          "type": "tuple[]"
        }
      ],
      "stateMutability": "view",
      "type": "function"
    },
    {
      "inputs": [],
      "name": "getTransactionCount",
      "outputs": [
        {
          "internalType": "uint256",
          "name": "",
          "type": "uint256"
        }
      ],
      "stateMutability": "view",
      "type": "function"
    },
    {
      "inputs": [
        {
          "internalType": "address",
          "name": "_add",
          "type": "address"
        },
        {
          "internalType": "uint256",
          "name": "_amount",
          "type": "uint256"
        },
        {
          "internalType": "string",
          "name": "message",
          "type": "string"
        }
      ],
      "name": "sendmoney",
      "outputs": [],
      "stateMutability": "nonpayable",
      "type": "function"
    }
  ],
  "bytecode": "0x60806040526000805534801561001457600080fd5b50610c0b806100246000396000f3fe608060405234801561001057600080fd5b506004361061004c5760003560e01c806327506f53146100515780632e7700f01461006f5780636ca5f91d1461008d578063eb12da4a146100a9575b600080fd5b6100596100c5565b60405161006691906108a0565b60405180910390f35b610077610276565b60405161008491906108c2565b60405180910390f35b6100a760048036038101906100a29190610623565b61027f565b005b6100c360048036038101906100be91906105bc565b6102d6565b005b60606001805480602002602001604051908101604052809291908181526020016000905b8282101561026d57838290600052602060002090600502016040518060a00160405290816000820160009054906101000a900473ffffffffffffffffffffffffffffffffffffffff1673ffffffffffffffffffffffffffffffffffffffff1673ffffffffffffffffffffffffffffffffffffffff1681526020016001820160009054906101000a900473ffffffffffffffffffffffffffffffffffffffff1673ffffffffffffffffffffffffffffffffffffffff1673ffffffffffffffffffffffffffffffffffffffff168152602001600282015481526020016003820180546101d290610ac0565b80601f01602080910402602001604051908101604052809291908181526020018280546101fe90610ac0565b801561024b5780601f106102205761010080835404028352916020019161024b565b820191906000526020600020905b81548152906001019060200180831161022e57829003601f168201915b50505050508152602001600482015481525050815260200190600101906100e9565b50505050905090565b60008054905090565b8273ffffffffffffffffffffffffffffffffffffffff166108fc839081150290604051600060405180830381858888f193505050501580156102c5573d6000803e3d6000fd5b506102d18383836102d6565b505050565b60016000808282546102e891906109a4565b9250508190555060016040518060a001604052803373ffffffffffffffffffffffffffffffffffffffff1681526020018573ffffffffffffffffffffffffffffffffffffffff16815260200184815260200183815260200142815250908060018154018082558091505060019003906000526020600020906005020160009091909190915060008201518160000160006101000a81548173ffffffffffffffffffffffffffffffffffffffff021916908373ffffffffffffffffffffffffffffffffffffffff16021790555060208201518160010160006101000a81548173ffffffffffffffffffffffffffffffffffffffff021916908373ffffffffffffffffffffffffffffffffffffffff160217905550604082015181600201556060820151816003019080519060200190610421929190610472565b506080820151816004015550507fc4b32d7ff75a51e487f3cbb5d3202f2efecca1f4c2b987e0039c1d3220b48a833384848442604051610465959493929190610846565b60405180910390a1505050565b82805461047e90610ac0565b90600052602060002090601f0160209004810192826104a057600085556104e7565b82601f106104b957805160ff19168380011785556104e7565b828001600101855582156104e7579182015b828111156104e65782518255916020019190600101906104cb565b5b5090506104f491906104f8565b5090565b5b808211156105115760008160009055506001016104f9565b5090565b60006105286105238461090e565b6108dd565b90508281526020810184848401111561054057600080fd5b61054b848285610a7e565b509392505050565b60008135905061056281610b90565b92915050565b60008135905061057781610ba7565b92915050565b600082601f83011261058e57600080fd5b813561059e848260208601610515565b91505092915050565b6000813590506105b681610bbe565b92915050565b6000806000606084860312156105d157600080fd5b60006105df86828701610568565b93505060206105f0868287016105a7565b925050604084013567ffffffffffffffff81111561060d57600080fd5b6106198682870161057d565b9150509250925092565b60008060006060848603121561063857600080fd5b600061064686828701610553565b9350506020610657868287016105a7565b925050604084013567ffffffffffffffff81111561067457600080fd5b6106808682870161057d565b9150509250925092565b600061069683836107b2565b905092915050565b6106a781610a48565b82525050565b6106b6816109fa565b82525050565b6106c5816109fa565b82525050565b60006106d68261094e565b6106e08185610971565b9350836020820285016106f28561093e565b8060005b8581101561072e578484038952815161070f858261068a565b945061071a83610964565b925060208a019950506001810190506106f6565b50829750879550505050505092915050565b600061074b82610959565b6107558185610982565b9350610765818560208601610a8d565b61076e81610b7f565b840191505092915050565b600061078482610959565b61078e8185610993565b935061079e818560208601610a8d565b6107a781610b7f565b840191505092915050565b600060a0830160008301516107ca60008601826106ad565b5060208301516107dd60208601826106ad565b5060408301516107f06040860182610828565b50606083015184820360608601526108088282610740565b915050608083015161081d6080860182610828565b508091505092915050565b61083181610a3e565b82525050565b61084081610a3e565b82525050565b600060a08201905061085b60008301886106bc565b610868602083018761069e565b6108756040830186610837565b81810360608301526108878185610779565b90506108966080830184610837565b9695505050505050565b600060208201905081810360008301526108ba81846106cb565b905092915050565b60006020820190506108d76000830184610837565b92915050565b6000604051905081810181811067ffffffffffffffff8211171561090457610903610b50565b5b8060405250919050565b600067ffffffffffffffff82111561092957610928610b50565b5b601f19601f8301169050602081019050919050565b6000819050602082019050919050565b600081519050919050565b600081519050919050565b6000602082019050919050565b600082825260208201905092915050565b600082825260208201905092915050565b600082825260208201905092915050565b60006109af82610a3e565b91506109ba83610a3e565b9250827fffffffffffffffffffffffffffffffffffffffffffffffffffffffffffffffff038211156109ef576109ee610af2565b5b828201905092915050565b6000610a0582610a1e565b9050919050565b6000610a1782610a1e565b9050919050565b600073ffffffffffffffffffffffffffffffffffffffff82169050919050565b6000819050919050565b6000610a5382610a5a565b9050919050565b6000610a6582610a6c565b9050919050565b6000610a7782610a1e565b9050919050565b82818337600083830152505050565b60005b83811015610aab578082015181840152602081019050610a90565b83811115610aba576000848401525b50505050565b60006002820490506001821680610ad857607f821691505b60208210811415610aec57610aeb610b21565b5b50919050565b7f4e487b7100000000000000000000000000000000000000000000000000000000600052601160045260246000fd5b7f4e487b7100000000000000000000000000000000000000000000000000000000600052602260045260246000fd5b7f4e487b7100000000000000000000000000000000000000000000000000000000600052604160045260246000fd5b6000601f19601f8301169050919050565b610b99816109fa565b8114610ba457600080fd5b50565b610bb081610a0c565b8114610bbb57600080fd5b50565b610bc781610a3e565b8114610bd257600080fd5b5056fea26469706673582212209119757628b263ee48fd3ffab0be50c36eee2671110a22a93ad99a37e539131f64736f6c63430008000033",
  "linkReferences": {},
  "deployedLinkReferences": {}
}